{
  "_format": "hh-sol-artifact-1",
  "contractName": "MintTicket",
  "sourceName": "contracts/MintTicket.sol",
  "abi": [
    {
      "inputs": [
        {
          "internalType": "uint256",
          "name": "_price",
          "type": "uint256"
        }
      ],
      "stateMutability": "payable",
      "type": "constructor"
    },
    {
      "anonymous": false,
      "inputs": [
        {
          "indexed": true,
          "internalType": "address",
          "name": "owner",
          "type": "address"
        },
        {
          "indexed": true,
          "internalType": "address",
          "name": "approved",
          "type": "address"
        },
        {
          "indexed": true,
          "internalType": "uint256",
          "name": "tokenId",
          "type": "uint256"
        }
      ],
      "name": "Approval",
      "type": "event"
    },
    {
      "anonymous": false,
      "inputs": [
        {
          "indexed": true,
          "internalType": "address",
          "name": "owner",
          "type": "address"
        },
        {
          "indexed": true,
          "internalType": "address",
          "name": "operator",
          "type": "address"
        },
        {
          "indexed": false,
          "internalType": "bool",
          "name": "approved",
          "type": "bool"
        }
      ],
      "name": "ApprovalForAll",
      "type": "event"
    },
    {
      "anonymous": false,
      "inputs": [
        {
          "indexed": true,
          "internalType": "address",
          "name": "from",
          "type": "address"
        },
        {
          "indexed": true,
          "internalType": "address",
          "name": "to",
          "type": "address"
        },
        {
          "indexed": true,
          "internalType": "uint256",
          "name": "tokenId",
          "type": "uint256"
        }
      ],
      "name": "Transfer",
      "type": "event"
    },
    {
      "inputs": [
        {
          "internalType": "address",
          "name": "to",
          "type": "address"
        },
        {
          "internalType": "uint256",
          "name": "tokenId",
          "type": "uint256"
        }
      ],
      "name": "approve",
      "outputs": [],
      "stateMutability": "nonpayable",
      "type": "function"
    },
    {
      "inputs": [
        {
          "internalType": "address",
          "name": "owner",
          "type": "address"
        }
      ],
      "name": "balanceOf",
      "outputs": [
        {
          "internalType": "uint256",
          "name": "",
          "type": "uint256"
        }
      ],
      "stateMutability": "view",
      "type": "function"
    },
    {
      "inputs": [
        {
          "internalType": "string",
          "name": "_tokenURI",
          "type": "string"
        }
      ],
      "name": "buyTicket",
      "outputs": [
        {
          "internalType": "uint256",
          "name": "",
          "type": "uint256"
        }
      ],
      "stateMutability": "payable",
      "type": "function"
    },
    {
      "inputs": [
        {
          "internalType": "uint256",
          "name": "tokenId",
          "type": "uint256"
        }
      ],
      "name": "getApproved",
      "outputs": [
        {
          "internalType": "address",
          "name": "",
          "type": "address"
        }
      ],
      "stateMutability": "view",
      "type": "function"
    },
    {
      "inputs": [
        {
          "internalType": "address",
          "name": "_mintTicketOwner",
          "type": "address"
        }
      ],
      "name": "getTicketList",
      "outputs": [
        {
          "components": [
            {
              "internalType": "uint256",
              "name": "tokenId",
              "type": "uint256"
            }
          ],
          "internalType": "struct MintTicket.TicketTokenData[]",
          "name": "",
          "type": "tuple[]"
        }
      ],
      "stateMutability": "view",
      "type": "function"
    },
    {
      "inputs": [],
      "name": "getTicketPrice",
      "outputs": [
        {
          "internalType": "uint256",
          "name": "",
          "type": "uint256"
        }
      ],
      "stateMutability": "view",
      "type": "function"
    },
    {
      "inputs": [
        {
          "internalType": "address",
          "name": "owner",
          "type": "address"
        },
        {
          "internalType": "address",
          "name": "operator",
          "type": "address"
        }
      ],
      "name": "isApprovedForAll",
      "outputs": [
        {
          "internalType": "bool",
          "name": "",
          "type": "bool"
        }
      ],
      "stateMutability": "view",
      "type": "function"
    },
    {
      "inputs": [],
      "name": "name",
      "outputs": [
        {
          "internalType": "string",
          "name": "",
          "type": "string"
        }
      ],
      "stateMutability": "view",
      "type": "function"
    },
    {
      "inputs": [],
      "name": "owner",
      "outputs": [
        {
          "internalType": "address payable",
          "name": "",
          "type": "address"
        }
      ],
      "stateMutability": "view",
      "type": "function"
    },
    {
      "inputs": [
        {
          "internalType": "uint256",
          "name": "tokenId",
          "type": "uint256"
        }
      ],
      "name": "ownerOf",
      "outputs": [
        {
          "internalType": "address",
          "name": "",
          "type": "address"
        }
      ],
      "stateMutability": "view",
      "type": "function"
    },
    {
      "inputs": [
        {
          "internalType": "address",
          "name": "from",
          "type": "address"
        },
        {
          "internalType": "address",
          "name": "to",
          "type": "address"
        },
        {
          "internalType": "uint256",
          "name": "tokenId",
          "type": "uint256"
        }
      ],
      "name": "safeTransferFrom",
      "outputs": [],
      "stateMutability": "nonpayable",
      "type": "function"
    },
    {
      "inputs": [
        {
          "internalType": "address",
          "name": "from",
          "type": "address"
        },
        {
          "internalType": "address",
          "name": "to",
          "type": "address"
        },
        {
          "internalType": "uint256",
          "name": "tokenId",
          "type": "uint256"
        },
        {
          "internalType": "bytes",
          "name": "_data",
          "type": "bytes"
        }
      ],
      "name": "safeTransferFrom",
      "outputs": [],
      "stateMutability": "nonpayable",
      "type": "function"
    },
    {
      "inputs": [],
      "name": "saleContractAddress",
      "outputs": [
        {
          "internalType": "address",
          "name": "",
          "type": "address"
        }
      ],
      "stateMutability": "view",
      "type": "function"
    },
    {
      "inputs": [],
      "name": "saleTicket",
      "outputs": [
        {
          "internalType": "contract SaleTicket",
          "name": "",
          "type": "address"
        }
      ],
      "stateMutability": "view",
      "type": "function"
    },
    {
      "inputs": [
        {
          "internalType": "address",
          "name": "operator",
          "type": "address"
        },
        {
          "internalType": "bool",
          "name": "approved",
          "type": "bool"
        }
      ],
      "name": "setApprovalForAll",
      "outputs": [],
      "stateMutability": "nonpayable",
      "type": "function"
    },
    {
      "inputs": [
        {
          "internalType": "address",
          "name": "_setSaleTicket",
          "type": "address"
        }
      ],
      "name": "setSaleTicket",
      "outputs": [],
      "stateMutability": "nonpayable",
      "type": "function"
    },
    {
      "inputs": [
        {
          "internalType": "bytes4",
          "name": "interfaceId",
          "type": "bytes4"
        }
      ],
      "name": "supportsInterface",
      "outputs": [
        {
          "internalType": "bool",
          "name": "",
          "type": "bool"
        }
      ],
      "stateMutability": "view",
      "type": "function"
    },
    {
      "inputs": [],
      "name": "symbol",
      "outputs": [
        {
          "internalType": "string",
          "name": "",
          "type": "string"
        }
      ],
      "stateMutability": "view",
      "type": "function"
    },
    {
      "inputs": [
        {
          "internalType": "uint256",
          "name": "index",
          "type": "uint256"
        }
      ],
      "name": "tokenByIndex",
      "outputs": [
        {
          "internalType": "uint256",
          "name": "",
          "type": "uint256"
        }
      ],
      "stateMutability": "view",
      "type": "function"
    },
    {
      "inputs": [
        {
          "internalType": "address",
          "name": "owner",
          "type": "address"
        },
        {
          "internalType": "uint256",
          "name": "index",
          "type": "uint256"
        }
      ],
      "name": "tokenOfOwnerByIndex",
      "outputs": [
        {
          "internalType": "uint256",
          "name": "",
          "type": "uint256"
        }
      ],
      "stateMutability": "view",
      "type": "function"
    },
    {
      "inputs": [
        {
          "internalType": "uint256",
          "name": "tokenId",
          "type": "uint256"
        }
      ],
      "name": "tokenURI",
      "outputs": [
        {
          "internalType": "string",
          "name": "",
          "type": "string"
        }
      ],
      "stateMutability": "view",
      "type": "function"
    },
    {
      "inputs": [],
      "name": "totalSupply",
      "outputs": [
        {
          "internalType": "uint256",
          "name": "",
          "type": "uint256"
        }
      ],
      "stateMutability": "view",
      "type": "function"
    },
    {
      "inputs": [
        {
          "internalType": "address",
          "name": "from",
          "type": "address"
        },
        {
          "internalType": "address",
          "name": "to",
          "type": "address"
        },
        {
          "internalType": "uint256",
          "name": "tokenId",
          "type": "uint256"
        }
      ],
      "name": "transferFrom",
      "outputs": [],
      "stateMutability": "nonpayable",
      "type": "function"
    },
    {
      "inputs": [],
      "name": "withdraw",
      "outputs": [],
      "stateMutability": "nonpayable",
      "type": "function"
    }
  ],
  "bytecode": "0x6080604052604051620039a2380380620039a28339818101604052810190620000299190620001df565b6040518060400160405280600881526020017f4d494e54204e46540000000000000000000000000000000000000000000000008152506040518060400160405280600381526020017f4d4e5400000000000000000000000000000000000000000000000000000000008152508160009080519060200190620000ad92919062000118565b508060019080519060200190620000c692919062000118565b50505033600c60006101000a81548173ffffffffffffffffffffffffffffffffffffffff021916908373ffffffffffffffffffffffffffffffffffffffff16021790555080600d819055505062000294565b828054620001269062000215565b90600052602060002090601f0160209004810192826200014a576000855562000196565b82601f106200016557805160ff191683800117855562000196565b8280016001018555821562000196579182015b828111156200019557825182559160200191906001019062000178565b5b509050620001a59190620001a9565b5090565b5b80821115620001c4576000816000905550600101620001aa565b5090565b600081519050620001d9816200027a565b92915050565b600060208284031215620001f257600080fd5b60006200020284828501620001c8565b91505092915050565b6000819050919050565b600060028204905060018216806200022e57607f821691505b602082108114156200024557620002446200024b565b5b50919050565b7f4e487b7100000000000000000000000000000000000000000000000000000000600052602260045260246000fd5b62000285816200020b565b81146200029157600080fd5b50565b6136fe80620002a46000396000f3fe60806040526004361061014b5760003560e01c80636352211e116100b6578063b88d4fde1161006f578063b88d4fde146104a4578063c87b56dd146104cd578063cc71e05f1461050a578063d274eb8b14610547578063e985e9c514610572578063fa30b251146105af5761014b565b80636352211e1461038057806370a08231146103bd57806387bb7ae0146103fa5780638da5cb5b1461042557806395d89b4114610450578063a22cb4651461047b5761014b565b806326dbb3e01161010857806326dbb3e0146102725780632f745c591461029b578063321328f6146102d85780633ccfd60b1461030357806342842e0e1461031a5780634f6ccce7146103435761014b565b806301ffc9a71461015057806306fdde031461018d578063081812fc146101b8578063095ea7b3146101f557806318160ddd1461021e57806323b872dd14610249575b600080fd5b34801561015c57600080fd5b5061017760048036038101906101729190612571565b6105df565b6040516101849190612b00565b60405180910390f35b34801561019957600080fd5b506101a2610659565b6040516101af9190612b36565b60405180910390f35b3480156101c457600080fd5b506101df60048036038101906101da9190612604565b6106eb565b6040516101ec9190612a5c565b60405180910390f35b34801561020157600080fd5b5061021c60048036038101906102179190612535565b610770565b005b34801561022a57600080fd5b50610233610888565b6040516102409190612db8565b60405180910390f35b34801561025557600080fd5b50610270600480360381019061026b919061242f565b610895565b005b34801561027e57600080fd5b50610299600480360381019061029491906123ca565b6108f5565b005b3480156102a757600080fd5b506102c260048036038101906102bd9190612535565b61097a565b6040516102cf9190612db8565b60405180910390f35b3480156102e457600080fd5b506102ed610a1f565b6040516102fa9190612a5c565b60405180910390f35b34801561030f57600080fd5b50610318610a45565b005b34801561032657600080fd5b50610341600480360381019061033c919061242f565b610b1c565b005b34801561034f57600080fd5b5061036a60048036038101906103659190612604565b610b3c565b6040516103779190612db8565b60405180910390f35b34801561038c57600080fd5b506103a760048036038101906103a29190612604565b610bd3565b6040516103b49190612a5c565b60405180910390f35b3480156103c957600080fd5b506103e460048036038101906103df91906123ca565b610c85565b6040516103f19190612db8565b60405180910390f35b34801561040657600080fd5b5061040f610d3d565b60405161041c9190612db8565b60405180910390f35b34801561043157600080fd5b5061043a610d47565b6040516104479190612a77565b60405180910390f35b34801561045c57600080fd5b50610465610d6d565b6040516104729190612b36565b60405180910390f35b34801561048757600080fd5b506104a2600480360381019061049d91906124f9565b610dff565b005b3480156104b057600080fd5b506104cb60048036038101906104c6919061247e565b610e15565b005b3480156104d957600080fd5b506104f460048036038101906104ef9190612604565b610e77565b6040516105019190612b36565b60405180910390f35b34801561051657600080fd5b50610531600480360381019061052c91906123ca565b610f1c565b60405161053e9190612ade565b60405180910390f35b34801561055357600080fd5b5061055c611078565b6040516105699190612b1b565b60405180910390f35b34801561057e57600080fd5b50610599600480360381019061059491906123f3565b61109e565b6040516105a69190612b00565b60405180910390f35b6105c960048036038101906105c491906125c3565b611132565b6040516105d69190612db8565b60405180910390f35b60007f780e9d63000000000000000000000000000000000000000000000000000000007bffffffffffffffffffffffffffffffffffffffffffffffffffffffff1916827bffffffffffffffffffffffffffffffffffffffffffffffffffffffff1916148061065257506106518261123a565b5b9050919050565b6060600080546106689061304c565b80601f01602080910402602001604051908101604052809291908181526020018280546106949061304c565b80156106e15780601f106106b6576101008083540402835291602001916106e1565b820191906000526020600020905b8154815290600101906020018083116106c457829003601f168201915b5050505050905090565b60006106f68261131c565b610735576040517f08c379a000000000000000000000000000000000000000000000000000000000815260040161072c90612cd8565b60405180910390fd5b6004600083815260200190815260200160002060009054906101000a900473ffffffffffffffffffffffffffffffffffffffff169050919050565b600061077b82610bd3565b90508073ffffffffffffffffffffffffffffffffffffffff168373ffffffffffffffffffffffffffffffffffffffff1614156107ec576040517f08c379a00000000000000000000000000000000000000000000000000000000081526004016107e390612cf8565b60405180910390fd5b8073ffffffffffffffffffffffffffffffffffffffff1661080b611388565b73ffffffffffffffffffffffffffffffffffffffff16148061083a575061083981610834611388565b61109e565b5b610879576040517f08c379a000000000000000000000000000000000000000000000000000000000815260040161087090612c58565b60405180910390fd5b6108838383611390565b505050565b6000600880549050905090565b6108a66108a0611388565b82611449565b6108e5576040517f08c379a00000000000000000000000000000000000000000000000000000000081526004016108dc90612d18565b60405180910390fd5b6108f0838383611527565b505050565b80600a60006101000a81548173ffffffffffffffffffffffffffffffffffffffff021916908373ffffffffffffffffffffffffffffffffffffffff16021790555080600b60006101000a81548173ffffffffffffffffffffffffffffffffffffffff021916908373ffffffffffffffffffffffffffffffffffffffff16021790555050565b600061098583610c85565b82106109c6576040517f08c379a00000000000000000000000000000000000000000000000000000000081526004016109bd90612b58565b60405180910390fd5b600660008473ffffffffffffffffffffffffffffffffffffffff1673ffffffffffffffffffffffffffffffffffffffff168152602001908152602001600020600083815260200190815260200160002054905092915050565b600b60009054906101000a900473ffffffffffffffffffffffffffffffffffffffff1681565b60004790506000600c60009054906101000a900473ffffffffffffffffffffffffffffffffffffffff1673ffffffffffffffffffffffffffffffffffffffff1682604051610a9290612a47565b60006040518083038185875af1925050503d8060008114610acf576040519150601f19603f3d011682016040523d82523d6000602084013e610ad4565b606091505b5050905080610b18576040517f08c379a0000000000000000000000000000000000000000000000000000000008152600401610b0f90612bd8565b60405180910390fd5b5050565b610b3783838360405180602001604052806000815250610e15565b505050565b6000610b46610888565b8210610b87576040517f08c379a0000000000000000000000000000000000000000000000000000000008152600401610b7e90612d58565b60405180910390fd5b60088281548110610bc1577f4e487b7100000000000000000000000000000000000000000000000000000000600052603260045260246000fd5b90600052602060002001549050919050565b6000806002600084815260200190815260200160002060009054906101000a900473ffffffffffffffffffffffffffffffffffffffff169050600073ffffffffffffffffffffffffffffffffffffffff168173ffffffffffffffffffffffffffffffffffffffff161415610c7c576040517f08c379a0000000000000000000000000000000000000000000000000000000008152600401610c7390612c98565b60405180910390fd5b80915050919050565b60008073ffffffffffffffffffffffffffffffffffffffff168273ffffffffffffffffffffffffffffffffffffffff161415610cf6576040517f08c379a0000000000000000000000000000000000000000000000000000000008152600401610ced90612c78565b60405180910390fd5b600360008373ffffffffffffffffffffffffffffffffffffffff1673ffffffffffffffffffffffffffffffffffffffff168152602001908152602001600020549050919050565b6000600d54905090565b600c60009054906101000a900473ffffffffffffffffffffffffffffffffffffffff1681565b606060018054610d7c9061304c565b80601f0160208091040260200160405190810160405280929190818152602001828054610da89061304c565b8015610df55780601f10610dca57610100808354040283529160200191610df5565b820191906000526020600020905b815481529060010190602001808311610dd857829003601f168201915b5050505050905090565b610e11610e0a611388565b838361178e565b5050565b610e26610e20611388565b83611449565b610e65576040517f08c379a0000000000000000000000000000000000000000000000000000000008152600401610e5c90612d18565b60405180910390fd5b610e71848484846118fb565b50505050565b6060600e60008381526020019081526020016000208054610e979061304c565b80601f0160208091040260200160405190810160405280929190818152602001828054610ec39061304c565b8015610f105780601f10610ee557610100808354040283529160200191610f10565b820191906000526020600020905b815481529060010190602001808311610ef357829003601f168201915b50505050509050919050565b60606000610f2983610c85565b90506000811415610f6f576040517f08c379a0000000000000000000000000000000000000000000000000000000008152600401610f6690612d78565b60405180910390fd5b60008167ffffffffffffffff811115610fb1577f4e487b7100000000000000000000000000000000000000000000000000000000600052604160045260246000fd5b604051908082528060200260200182016040528015610fea57816020015b610fd76121db565b815260200190600190039081610fcf5790505b50905060005b8281101561106d576000611004868361097a565b905060405180602001604052808281525083838151811061104e577f4e487b7100000000000000000000000000000000000000000000000000000000600052603260045260246000fd5b6020026020010181905250508080611065906130af565b915050610ff0565b508092505050919050565b600a60009054906101000a900473ffffffffffffffffffffffffffffffffffffffff1681565b6000600560008473ffffffffffffffffffffffffffffffffffffffff1673ffffffffffffffffffffffffffffffffffffffff16815260200190815260200160002060008373ffffffffffffffffffffffffffffffffffffffff1673ffffffffffffffffffffffffffffffffffffffff16815260200190815260200160002060009054906101000a900460ff16905092915050565b6000803411611176576040517f08c379a000000000000000000000000000000000000000000000000000000000815260040161116d90612d38565b60405180910390fd5b34600d5411156111bb576040517f08c379a00000000000000000000000000000000000000000000000000000000081526004016111b290612d98565b60405180910390fd5b600060016111c7610888565b6111d19190612ed6565b90506111dd3382611957565b82600e600083815260200190815260200160002090805190602001906112049291906121ee565b50611231600b60009054906101000a900473ffffffffffffffffffffffffffffffffffffffff1682610770565b80915050919050565b60007f80ac58cd000000000000000000000000000000000000000000000000000000007bffffffffffffffffffffffffffffffffffffffffffffffffffffffff1916827bffffffffffffffffffffffffffffffffffffffffffffffffffffffff1916148061130557507f5b5e139f000000000000000000000000000000000000000000000000000000007bffffffffffffffffffffffffffffffffffffffffffffffffffffffff1916827bffffffffffffffffffffffffffffffffffffffffffffffffffffffff1916145b80611315575061131482611b31565b5b9050919050565b60008073ffffffffffffffffffffffffffffffffffffffff166002600084815260200190815260200160002060009054906101000a900473ffffffffffffffffffffffffffffffffffffffff1673ffffffffffffffffffffffffffffffffffffffff1614159050919050565b600033905090565b816004600083815260200190815260200160002060006101000a81548173ffffffffffffffffffffffffffffffffffffffff021916908373ffffffffffffffffffffffffffffffffffffffff160217905550808273ffffffffffffffffffffffffffffffffffffffff1661140383610bd3565b73ffffffffffffffffffffffffffffffffffffffff167f8c5be1e5ebec7d5bd14f71427d1e84f3dd0314c0f7b2291e5b200ac8c7c3b92560405160405180910390a45050565b60006114548261131c565b611493576040517f08c379a000000000000000000000000000000000000000000000000000000000815260040161148a90612c38565b60405180910390fd5b600061149e83610bd3565b90508073ffffffffffffffffffffffffffffffffffffffff168473ffffffffffffffffffffffffffffffffffffffff1614806114e057506114df818561109e565b5b8061151e57508373ffffffffffffffffffffffffffffffffffffffff16611506846106eb565b73ffffffffffffffffffffffffffffffffffffffff16145b91505092915050565b8273ffffffffffffffffffffffffffffffffffffffff1661154782610bd3565b73ffffffffffffffffffffffffffffffffffffffff161461159d576040517f08c379a000000000000000000000000000000000000000000000000000000000815260040161159490612b98565b60405180910390fd5b600073ffffffffffffffffffffffffffffffffffffffff168273ffffffffffffffffffffffffffffffffffffffff16141561160d576040517f08c379a000000000000000000000000000000000000000000000000000000000815260040161160490612bf8565b60405180910390fd5b611618838383611b9b565b611623600082611390565b6001600360008573ffffffffffffffffffffffffffffffffffffffff1673ffffffffffffffffffffffffffffffffffffffff16815260200190815260200160002060008282546116739190612f2c565b925050819055506001600360008473ffffffffffffffffffffffffffffffffffffffff1673ffffffffffffffffffffffffffffffffffffffff16815260200190815260200160002060008282546116ca9190612ed6565b92505081905550816002600083815260200190815260200160002060006101000a81548173ffffffffffffffffffffffffffffffffffffffff021916908373ffffffffffffffffffffffffffffffffffffffff160217905550808273ffffffffffffffffffffffffffffffffffffffff168473ffffffffffffffffffffffffffffffffffffffff167fddf252ad1be2c89b69c2b068fc378daa952ba7f163c4a11628f55a4df523b3ef60405160405180910390a4611789838383611caf565b505050565b8173ffffffffffffffffffffffffffffffffffffffff168373ffffffffffffffffffffffffffffffffffffffff1614156117fd576040517f08c379a00000000000000000000000000000000000000000000000000000000081526004016117f490612c18565b60405180910390fd5b80600560008573ffffffffffffffffffffffffffffffffffffffff1673ffffffffffffffffffffffffffffffffffffffff16815260200190815260200160002060008473ffffffffffffffffffffffffffffffffffffffff1673ffffffffffffffffffffffffffffffffffffffff16815260200190815260200160002060006101000a81548160ff0219169083151502179055508173ffffffffffffffffffffffffffffffffffffffff168373ffffffffffffffffffffffffffffffffffffffff167f17307eab39ab6107e8899845ad3d59bd9653f200f220920489ca2b5937696c31836040516118ee9190612b00565b60405180910390a3505050565b611906848484611527565b61191284848484611cb4565b611951576040517f08c379a000000000000000000000000000000000000000000000000000000000815260040161194890612b78565b60405180910390fd5b50505050565b600073ffffffffffffffffffffffffffffffffffffffff168273ffffffffffffffffffffffffffffffffffffffff1614156119c7576040517f08c379a00000000000000000000000000000000000000000000000000000000081526004016119be90612cb8565b60405180910390fd5b6119d08161131c565b15611a10576040517f08c379a0000000000000000000000000000000000000000000000000000000008152600401611a0790612bb8565b60405180910390fd5b611a1c60008383611b9b565b6001600360008473ffffffffffffffffffffffffffffffffffffffff1673ffffffffffffffffffffffffffffffffffffffff1681526020019081526020016000206000828254611a6c9190612ed6565b92505081905550816002600083815260200190815260200160002060006101000a81548173ffffffffffffffffffffffffffffffffffffffff021916908373ffffffffffffffffffffffffffffffffffffffff160217905550808273ffffffffffffffffffffffffffffffffffffffff16600073ffffffffffffffffffffffffffffffffffffffff167fddf252ad1be2c89b69c2b068fc378daa952ba7f163c4a11628f55a4df523b3ef60405160405180910390a4611b2d60008383611caf565b5050565b60007f01ffc9a7000000000000000000000000000000000000000000000000000000007bffffffffffffffffffffffffffffffffffffffffffffffffffffffff1916827bffffffffffffffffffffffffffffffffffffffffffffffffffffffff1916149050919050565b611ba6838383611e4b565b600073ffffffffffffffffffffffffffffffffffffffff168373ffffffffffffffffffffffffffffffffffffffff161415611be957611be481611e50565b611c28565b8173ffffffffffffffffffffffffffffffffffffffff168373ffffffffffffffffffffffffffffffffffffffff1614611c2757611c268382611e99565b5b5b600073ffffffffffffffffffffffffffffffffffffffff168273ffffffffffffffffffffffffffffffffffffffff161415611c6b57611c6681612006565b611caa565b8273ffffffffffffffffffffffffffffffffffffffff168273ffffffffffffffffffffffffffffffffffffffff1614611ca957611ca88282612149565b5b5b505050565b505050565b6000611cd58473ffffffffffffffffffffffffffffffffffffffff166121c8565b15611e3e578373ffffffffffffffffffffffffffffffffffffffff1663150b7a02611cfe611388565b8786866040518563ffffffff1660e01b8152600401611d209493929190612a92565b602060405180830381600087803b158015611d3a57600080fd5b505af1925050508015611d6b57506040513d601f19601f82011682018060405250810190611d68919061259a565b60015b611dee573d8060008114611d9b576040519150601f19603f3d011682016040523d82523d6000602084013e611da0565b606091505b50600081511415611de6576040517f08c379a0000000000000000000000000000000000000000000000000000000008152600401611ddd90612b78565b60405180910390fd5b805181602001fd5b63150b7a0260e01b7bffffffffffffffffffffffffffffffffffffffffffffffffffffffff1916817bffffffffffffffffffffffffffffffffffffffffffffffffffffffff191614915050611e43565b600190505b949350505050565b505050565b6008805490506009600083815260200190815260200160002081905550600881908060018154018082558091505060019003906000526020600020016000909190919091505550565b60006001611ea684610c85565b611eb09190612f2c565b9050600060076000848152602001908152602001600020549050818114611f95576000600660008673ffffffffffffffffffffffffffffffffffffffff1673ffffffffffffffffffffffffffffffffffffffff168152602001908152602001600020600084815260200190815260200160002054905080600660008773ffffffffffffffffffffffffffffffffffffffff1673ffffffffffffffffffffffffffffffffffffffff168152602001908152602001600020600084815260200190815260200160002081905550816007600083815260200190815260200160002081905550505b6007600084815260200190815260200160002060009055600660008573ffffffffffffffffffffffffffffffffffffffff1673ffffffffffffffffffffffffffffffffffffffff16815260200190815260200160002060008381526020019081526020016000206000905550505050565b6000600160088054905061201a9190612f2c565b9050600060096000848152602001908152602001600020549050600060088381548110612070577f4e487b7100000000000000000000000000000000000000000000000000000000600052603260045260246000fd5b9060005260206000200154905080600883815481106120b8577f4e487b7100000000000000000000000000000000000000000000000000000000600052603260045260246000fd5b90600052602060002001819055508160096000838152602001908152602001600020819055506009600085815260200190815260200160002060009055600880548061212d577f4e487b7100000000000000000000000000000000000000000000000000000000600052603160045260246000fd5b6001900381819060005260206000200160009055905550505050565b600061215483610c85565b905081600660008573ffffffffffffffffffffffffffffffffffffffff1673ffffffffffffffffffffffffffffffffffffffff168152602001908152602001600020600083815260200190815260200160002081905550806007600084815260200190815260200160002081905550505050565b600080823b905060008111915050919050565b6040518060200160405280600081525090565b8280546121fa9061304c565b90600052602060002090601f01602090048101928261221c5760008555612263565b82601f1061223557805160ff1916838001178555612263565b82800160010185558215612263579182015b82811115612262578251825591602001919060010190612247565b5b5090506122709190612274565b5090565b5b8082111561228d576000816000905550600101612275565b5090565b60006122a461229f84612df8565b612dd3565b9050828152602081018484840111156122bc57600080fd5b6122c784828561300a565b509392505050565b60006122e26122dd84612e29565b612dd3565b9050828152602081018484840111156122fa57600080fd5b61230584828561300a565b509392505050565b60008135905061231c8161366c565b92915050565b60008135905061233181613683565b92915050565b6000813590506123468161369a565b92915050565b60008151905061235b8161369a565b92915050565b600082601f83011261237257600080fd5b8135612382848260208601612291565b91505092915050565b600082601f83011261239c57600080fd5b81356123ac8482602086016122cf565b91505092915050565b6000813590506123c4816136b1565b92915050565b6000602082840312156123dc57600080fd5b60006123ea8482850161230d565b91505092915050565b6000806040838503121561240657600080fd5b60006124148582860161230d565b92505060206124258582860161230d565b9150509250929050565b60008060006060848603121561244457600080fd5b60006124528682870161230d565b93505060206124638682870161230d565b9250506040612474868287016123b5565b9150509250925092565b6000806000806080858703121561249457600080fd5b60006124a28782880161230d565b94505060206124b38782880161230d565b93505060406124c4878288016123b5565b925050606085013567ffffffffffffffff8111156124e157600080fd5b6124ed87828801612361565b91505092959194509250565b6000806040838503121561250c57600080fd5b600061251a8582860161230d565b925050602061252b85828601612322565b9150509250929050565b6000806040838503121561254857600080fd5b60006125568582860161230d565b9250506020612567858286016123b5565b9150509250929050565b60006020828403121561258357600080fd5b600061259184828501612337565b91505092915050565b6000602082840312156125ac57600080fd5b60006125ba8482850161234c565b91505092915050565b6000602082840312156125d557600080fd5b600082013567ffffffffffffffff8111156125ef57600080fd5b6125fb8482850161238b565b91505092915050565b60006020828403121561261657600080fd5b6000612624848285016123b5565b91505092915050565b60006126398383612a0d565b60208301905092915050565b61264e81612f72565b82525050565b61265d81612f60565b82525050565b600061266e82612e6a565b6126788185612e98565b935061268383612e5a565b8060005b838110156126b457815161269b888261262d565b97506126a683612e8b565b925050600181019050612687565b5085935050505092915050565b6126ca81612f84565b82525050565b60006126db82612e75565b6126e58185612ea9565b93506126f5818560208601613019565b6126fe81613185565b840191505092915050565b61271281612fe6565b82525050565b600061272382612e80565b61272d8185612ec5565b935061273d818560208601613019565b61274681613185565b840191505092915050565b600061275e602b83612ec5565b915061276982613196565b604082019050919050565b6000612781603283612ec5565b915061278c826131e5565b604082019050919050565b60006127a4602583612ec5565b91506127af82613234565b604082019050919050565b60006127c7601c83612ec5565b91506127d282613283565b602082019050919050565b60006127ea601483612ec5565b91506127f5826132ac565b602082019050919050565b600061280d602483612ec5565b9150612818826132d5565b604082019050919050565b6000612830601983612ec5565b915061283b82613324565b602082019050919050565b6000612853602c83612ec5565b915061285e8261334d565b604082019050919050565b6000612876603883612ec5565b91506128818261339c565b604082019050919050565b6000612899602a83612ec5565b91506128a4826133eb565b604082019050919050565b60006128bc602983612ec5565b91506128c78261343a565b604082019050919050565b60006128df602083612ec5565b91506128ea82613489565b602082019050919050565b6000612902602c83612ec5565b915061290d826134b2565b604082019050919050565b6000612925602183612ec5565b915061293082613501565b604082019050919050565b6000612948600083612eba565b915061295382613550565b600082019050919050565b600061296b603183612ec5565b915061297682613553565b604082019050919050565b600061298e601683612ec5565b9150612999826135a2565b602082019050919050565b60006129b1602c83612ec5565b91506129bc826135cb565b604082019050919050565b60006129d4601a83612ec5565b91506129df8261361a565b602082019050919050565b60006129f7601d83612ec5565b9150612a0282613643565b602082019050919050565b602082016000820151612a236000850182612a29565b50505050565b612a3281612fdc565b82525050565b612a4181612fdc565b82525050565b6000612a528261293b565b9150819050919050565b6000602082019050612a716000830184612654565b92915050565b6000602082019050612a8c6000830184612645565b92915050565b6000608082019050612aa76000830187612654565b612ab46020830186612654565b612ac16040830185612a38565b8181036060830152612ad381846126d0565b905095945050505050565b60006020820190508181036000830152612af88184612663565b905092915050565b6000602082019050612b1560008301846126c1565b92915050565b6000602082019050612b306000830184612709565b92915050565b60006020820190508181036000830152612b508184612718565b905092915050565b60006020820190508181036000830152612b7181612751565b9050919050565b60006020820190508181036000830152612b9181612774565b9050919050565b60006020820190508181036000830152612bb181612797565b9050919050565b60006020820190508181036000830152612bd1816127ba565b9050919050565b60006020820190508181036000830152612bf1816127dd565b9050919050565b60006020820190508181036000830152612c1181612800565b9050919050565b60006020820190508181036000830152612c3181612823565b9050919050565b60006020820190508181036000830152612c5181612846565b9050919050565b60006020820190508181036000830152612c7181612869565b9050919050565b60006020820190508181036000830152612c918161288c565b9050919050565b60006020820190508181036000830152612cb1816128af565b9050919050565b60006020820190508181036000830152612cd1816128d2565b9050919050565b60006020820190508181036000830152612cf1816128f5565b9050919050565b60006020820190508181036000830152612d1181612918565b9050919050565b60006020820190508181036000830152612d318161295e565b9050919050565b60006020820190508181036000830152612d5181612981565b9050919050565b60006020820190508181036000830152612d71816129a4565b9050919050565b60006020820190508181036000830152612d91816129c7565b9050919050565b60006020820190508181036000830152612db1816129ea565b9050919050565b6000602082019050612dcd6000830184612a38565b92915050565b6000612ddd612dee565b9050612de9828261307e565b919050565b6000604051905090565b600067ffffffffffffffff821115612e1357612e12613156565b5b612e1c82613185565b9050602081019050919050565b600067ffffffffffffffff821115612e4457612e43613156565b5b612e4d82613185565b9050602081019050919050565b6000819050602082019050919050565b600081519050919050565b600081519050919050565b600081519050919050565b6000602082019050919050565b600082825260208201905092915050565b600082825260208201905092915050565b600081905092915050565b600082825260208201905092915050565b6000612ee182612fdc565b9150612eec83612fdc565b9250827fffffffffffffffffffffffffffffffffffffffffffffffffffffffffffffffff03821115612f2157612f206130f8565b5b828201905092915050565b6000612f3782612fdc565b9150612f4283612fdc565b925082821015612f5557612f546130f8565b5b828203905092915050565b6000612f6b82612fbc565b9050919050565b6000612f7d82612fbc565b9050919050565b60008115159050919050565b60007fffffffff0000000000000000000000000000000000000000000000000000000082169050919050565b600073ffffffffffffffffffffffffffffffffffffffff82169050919050565b6000819050919050565b6000612ff182612ff8565b9050919050565b600061300382612fbc565b9050919050565b82818337600083830152505050565b60005b8381101561303757808201518184015260208101905061301c565b83811115613046576000848401525b50505050565b6000600282049050600182168061306457607f821691505b6020821081141561307857613077613127565b5b50919050565b61308782613185565b810181811067ffffffffffffffff821117156130a6576130a5613156565b5b80604052505050565b60006130ba82612fdc565b91507fffffffffffffffffffffffffffffffffffffffffffffffffffffffffffffffff8214156130ed576130ec6130f8565b5b600182019050919050565b7f4e487b7100000000000000000000000000000000000000000000000000000000600052601160045260246000fd5b7f4e487b7100000000000000000000000000000000000000000000000000000000600052602260045260246000fd5b7f4e487b7100000000000000000000000000000000000000000000000000000000600052604160045260246000fd5b6000601f19601f8301169050919050565b7f455243373231456e756d657261626c653a206f776e657220696e646578206f7560008201527f74206f6620626f756e6473000000000000000000000000000000000000000000602082015250565b7f4552433732313a207472616e7366657220746f206e6f6e20455243373231526560008201527f63656976657220696d706c656d656e7465720000000000000000000000000000602082015250565b7f4552433732313a207472616e736665722066726f6d20696e636f72726563742060008201527f6f776e6572000000000000000000000000000000000000000000000000000000602082015250565b7f4552433732313a20746f6b656e20616c7265616479206d696e74656400000000600082015250565b7f4661696c656420746f2073656e64204574686572000000000000000000000000600082015250565b7f4552433732313a207472616e7366657220746f20746865207a65726f2061646460008201527f7265737300000000000000000000000000000000000000000000000000000000602082015250565b7f4552433732313a20617070726f766520746f2063616c6c657200000000000000600082015250565b7f4552433732313a206f70657261746f7220717565727920666f72206e6f6e657860008201527f697374656e7420746f6b656e0000000000000000000000000000000000000000602082015250565b7f4552433732313a20617070726f76652063616c6c6572206973206e6f74206f7760008201527f6e6572206e6f7220617070726f76656420666f7220616c6c0000000000000000602082015250565b7f4552433732313a2062616c616e636520717565727920666f7220746865207a6560008201527f726f206164647265737300000000000000000000000000000000000000000000602082015250565b7f4552433732313a206f776e657220717565727920666f72206e6f6e657869737460008201527f656e7420746f6b656e0000000000000000000000000000000000000000000000602082015250565b7f4552433732313a206d696e7420746f20746865207a65726f2061646472657373600082015250565b7f4552433732313a20617070726f76656420717565727920666f72206e6f6e657860008201527f697374656e7420746f6b656e0000000000000000000000000000000000000000602082015250565b7f4552433732313a20617070726f76616c20746f2063757272656e74206f776e6560008201527f7200000000000000000000000000000000000000000000000000000000000000602082015250565b50565b7f4552433732313a207472616e736665722063616c6c6572206973206e6f74206f60008201527f776e6572206e6f7220617070726f766564000000000000000000000000000000602082015250565b7f43616c6c65722073656e74207a65726f20657468657200000000000000000000600082015250565b7f455243373231456e756d657261626c653a20676c6f62616c20696e646578206f60008201527f7574206f6620626f756e64730000000000000000000000000000000000000000602082015250565b7f4f776e657220646f65736e27742068617665207469636b65742e000000000000600082015250565b7f43616c6c65722073656e74206c6f776572207468616e2070726963652e000000600082015250565b61367581612f60565b811461368057600080fd5b50565b61368c81612f84565b811461369757600080fd5b50565b6136a381612f90565b81146136ae57600080fd5b50565b6136ba81612fdc565b81146136c557600080fd5b5056fea2646970667358221220b711e1c9babf59232e4008813e5ab2ab0f4e5b124e5a692b68f97edcbb405f8d64736f6c63430008040033",
  "linkReferences": {},
  "deployedLinkReferences": {}
}