{
  "_format": "hh-sol-artifact-1",
  "contractName": "SsafyNFT",
  "sourceName": "contracts/SsafyNFT.sol",
  "abi": [
    {
      "inputs": [
        {
          "internalType": "string",
          "name": "name",
          "type": "string"
        },
        {
          "internalType": "string",
          "name": "symbol",
          "type": "string"
        }
      ],
      "stateMutability": "nonpayable",
      "type": "constructor"
    },
    {
      "anonymous": false,
      "inputs": [
        {
          "indexed": true,
          "internalType": "address",
          "name": "owner",
          "type": "address"
        },
        {
          "indexed": true,
          "internalType": "address",
          "name": "approved",
          "type": "address"
        },
        {
          "indexed": true,
          "internalType": "uint256",
          "name": "tokenId",
          "type": "uint256"
        }
      ],
      "name": "Approval",
      "type": "event"
    },
    {
      "anonymous": false,
      "inputs": [
        {
          "indexed": true,
          "internalType": "address",
          "name": "owner",
          "type": "address"
        },
        {
          "indexed": true,
          "internalType": "address",
          "name": "operator",
          "type": "address"
        },
        {
          "indexed": false,
          "internalType": "bool",
          "name": "approved",
          "type": "bool"
        }
      ],
      "name": "ApprovalForAll",
      "type": "event"
    },
    {
      "anonymous": false,
      "inputs": [
        {
          "indexed": true,
          "internalType": "address",
          "name": "from",
          "type": "address"
        },
        {
          "indexed": true,
          "internalType": "address",
          "name": "to",
          "type": "address"
        },
        {
          "indexed": true,
          "internalType": "uint256",
          "name": "tokenId",
          "type": "uint256"
        }
      ],
      "name": "Transfer",
      "type": "event"
    },
    {
      "inputs": [
        {
          "internalType": "address",
          "name": "to",
          "type": "address"
        },
        {
          "internalType": "uint256",
          "name": "tokenId",
          "type": "uint256"
        }
      ],
      "name": "approve",
      "outputs": [],
      "stateMutability": "nonpayable",
      "type": "function"
    },
    {
      "inputs": [
        {
          "internalType": "address",
          "name": "owner",
          "type": "address"
        }
      ],
      "name": "balanceOf",
      "outputs": [
        {
          "internalType": "uint256",
          "name": "",
          "type": "uint256"
        }
      ],
      "stateMutability": "view",
      "type": "function"
    },
    {
      "inputs": [
        {
          "internalType": "address",
          "name": "to",
          "type": "address"
        },
        {
          "internalType": "string",
          "name": "_tokenURI",
          "type": "string"
        }
      ],
      "name": "create",
      "outputs": [
        {
          "internalType": "uint256",
          "name": "",
          "type": "uint256"
        }
      ],
      "stateMutability": "nonpayable",
      "type": "function"
    },
    {
      "inputs": [],
      "name": "current",
      "outputs": [
        {
          "internalType": "uint256",
          "name": "",
          "type": "uint256"
        }
      ],
      "stateMutability": "view",
      "type": "function"
    },
    {
      "inputs": [
        {
          "internalType": "uint256",
          "name": "tokenId",
          "type": "uint256"
        }
      ],
      "name": "getApproved",
      "outputs": [
        {
          "internalType": "address",
          "name": "",
          "type": "address"
        }
      ],
      "stateMutability": "view",
      "type": "function"
    },
    {
      "inputs": [
        {
          "internalType": "address",
          "name": "owner",
          "type": "address"
        },
        {
          "internalType": "address",
          "name": "operator",
          "type": "address"
        }
      ],
      "name": "isApprovedForAll",
      "outputs": [
        {
          "internalType": "bool",
          "name": "",
          "type": "bool"
        }
      ],
      "stateMutability": "view",
      "type": "function"
    },
    {
      "inputs": [],
      "name": "name",
      "outputs": [
        {
          "internalType": "string",
          "name": "",
          "type": "string"
        }
      ],
      "stateMutability": "view",
      "type": "function"
    },
    {
      "inputs": [
        {
          "internalType": "uint256",
          "name": "tokenId",
          "type": "uint256"
        }
      ],
      "name": "ownerOf",
      "outputs": [
        {
          "internalType": "address",
          "name": "",
          "type": "address"
        }
      ],
      "stateMutability": "view",
      "type": "function"
    },
    {
      "inputs": [
        {
          "internalType": "address",
          "name": "from",
          "type": "address"
        },
        {
          "internalType": "address",
          "name": "to",
          "type": "address"
        },
        {
          "internalType": "uint256",
          "name": "tokenId",
          "type": "uint256"
        }
      ],
      "name": "safeTransferFrom",
      "outputs": [],
      "stateMutability": "nonpayable",
      "type": "function"
    },
    {
      "inputs": [
        {
          "internalType": "address",
          "name": "from",
          "type": "address"
        },
        {
          "internalType": "address",
          "name": "to",
          "type": "address"
        },
        {
          "internalType": "uint256",
          "name": "tokenId",
          "type": "uint256"
        },
        {
          "internalType": "bytes",
          "name": "_data",
          "type": "bytes"
        }
      ],
      "name": "safeTransferFrom",
      "outputs": [],
      "stateMutability": "nonpayable",
      "type": "function"
    },
    {
      "inputs": [
        {
          "internalType": "address",
          "name": "operator",
          "type": "address"
        },
        {
          "internalType": "bool",
          "name": "approved",
          "type": "bool"
        }
      ],
      "name": "setApprovalForAll",
      "outputs": [],
      "stateMutability": "nonpayable",
      "type": "function"
    },
    {
      "inputs": [
        {
          "internalType": "bytes4",
          "name": "interfaceId",
          "type": "bytes4"
        }
      ],
      "name": "supportsInterface",
      "outputs": [
        {
          "internalType": "bool",
          "name": "",
          "type": "bool"
        }
      ],
      "stateMutability": "view",
      "type": "function"
    },
    {
      "inputs": [],
      "name": "symbol",
      "outputs": [
        {
          "internalType": "string",
          "name": "",
          "type": "string"
        }
      ],
      "stateMutability": "view",
      "type": "function"
    },
    {
      "inputs": [
        {
          "internalType": "uint256",
          "name": "tokenId",
          "type": "uint256"
        }
      ],
      "name": "tokenURI",
      "outputs": [
        {
          "internalType": "string",
          "name": "",
          "type": "string"
        }
      ],
      "stateMutability": "view",
      "type": "function"
    },
    {
      "inputs": [
        {
          "internalType": "address",
          "name": "from",
          "type": "address"
        },
        {
          "internalType": "address",
          "name": "to",
          "type": "address"
        },
        {
          "internalType": "uint256",
          "name": "tokenId",
          "type": "uint256"
        }
      ],
      "name": "transferFrom",
      "outputs": [],
      "stateMutability": "nonpayable",
      "type": "function"
    }
  ],
  "bytecode": "0x60806040523480156200001157600080fd5b50604051620028cd380380620028cd833981810160405281019062000037919062000197565b818181600090805190602001906200005192919062000075565b5080600190805190602001906200006a92919062000075565b50505050506200037a565b82805462000083906200029f565b90600052602060002090601f016020900481019282620000a75760008555620000f3565b82601f10620000c257805160ff1916838001178555620000f3565b82800160010185558215620000f3579182015b82811115620000f2578251825591602001919060010190620000d5565b5b50905062000102919062000106565b5090565b5b808211156200012157600081600090555060010162000107565b5090565b60006200013c620001368462000233565b6200020a565b9050828152602081018484840111156200015557600080fd5b6200016284828562000269565b509392505050565b600082601f8301126200017c57600080fd5b81516200018e84826020860162000125565b91505092915050565b60008060408385031215620001ab57600080fd5b600083015167ffffffffffffffff811115620001c657600080fd5b620001d4858286016200016a565b925050602083015167ffffffffffffffff811115620001f257600080fd5b62000200858286016200016a565b9150509250929050565b60006200021662000229565b9050620002248282620002d5565b919050565b6000604051905090565b600067ffffffffffffffff8211156200025157620002506200033a565b5b6200025c8262000369565b9050602081019050919050565b60005b83811015620002895780820151818401526020810190506200026c565b8381111562000299576000848401525b50505050565b60006002820490506001821680620002b857607f821691505b60208210811415620002cf57620002ce6200030b565b5b50919050565b620002e08262000369565b810181811067ffffffffffffffff821117156200030257620003016200033a565b5b80604052505050565b7f4e487b7100000000000000000000000000000000000000000000000000000000600052602260045260246000fd5b7f4e487b7100000000000000000000000000000000000000000000000000000000600052604160045260246000fd5b6000601f19601f8301169050919050565b612543806200038a6000396000f3fe608060405234801561001057600080fd5b50600436106100f55760003560e01c806370a0823111610097578063a22cb46511610066578063a22cb46514610298578063b88d4fde146102b4578063c87b56dd146102d0578063e985e9c514610300576100f5565b806370a08231146101fc57806395d89b411461022c5780639fa6a6e31461024a578063a15ab08d14610268576100f5565b8063095ea7b3116100d3578063095ea7b31461017857806323b872dd1461019457806342842e0e146101b05780636352211e146101cc576100f5565b806301ffc9a7146100fa57806306fdde031461012a578063081812fc14610148575b600080fd5b610114600480360381019061010f91906118e0565b610330565b6040516101219190611c28565b60405180910390f35b610132610412565b60405161013f9190611c43565b60405180910390f35b610162600480360381019061015d9190611932565b6104a4565b60405161016f9190611bc1565b60405180910390f35b610192600480360381019061018d91906118a4565b610529565b005b6101ae60048036038101906101a9919061174a565b610641565b005b6101ca60048036038101906101c5919061174a565b6106a1565b005b6101e660048036038101906101e19190611932565b6106c1565b6040516101f39190611bc1565b60405180910390f35b610216600480360381019061021191906116e5565b610773565b6040516102239190611e05565b60405180910390f35b61023461082b565b6040516102419190611c43565b60405180910390f35b6102526108bd565b60405161025f9190611e05565b60405180910390f35b610282600480360381019061027d9190611850565b6108c7565b60405161028f9190611e05565b60405180910390f35b6102b260048036038101906102ad9190611814565b610925565b005b6102ce60048036038101906102c99190611799565b61093b565b005b6102ea60048036038101906102e59190611932565b61099d565b6040516102f79190611c43565b60405180910390f35b61031a6004803603810190610315919061170e565b610a42565b6040516103279190611c28565b60405180910390f35b60007f80ac58cd000000000000000000000000000000000000000000000000000000007bffffffffffffffffffffffffffffffffffffffffffffffffffffffff1916827bffffffffffffffffffffffffffffffffffffffffffffffffffffffff191614806103fb57507f5b5e139f000000000000000000000000000000000000000000000000000000007bffffffffffffffffffffffffffffffffffffffffffffffffffffffff1916827bffffffffffffffffffffffffffffffffffffffffffffffffffffffff1916145b8061040b575061040a82610ad6565b5b9050919050565b6060600080546104219061201f565b80601f016020809104026020016040519081016040528092919081815260200182805461044d9061201f565b801561049a5780601f1061046f5761010080835404028352916020019161049a565b820191906000526020600020905b81548152906001019060200180831161047d57829003601f168201915b5050505050905090565b60006104af82610b40565b6104ee576040517f08c379a00000000000000000000000000000000000000000000000000000000081526004016104e590611da5565b60405180910390fd5b6004600083815260200190815260200160002060009054906101000a900473ffffffffffffffffffffffffffffffffffffffff169050919050565b6000610534826106c1565b90508073ffffffffffffffffffffffffffffffffffffffff168373ffffffffffffffffffffffffffffffffffffffff1614156105a5576040517f08c379a000000000000000000000000000000000000000000000000000000000815260040161059c90611dc5565b60405180910390fd5b8073ffffffffffffffffffffffffffffffffffffffff166105c4610bac565b73ffffffffffffffffffffffffffffffffffffffff1614806105f357506105f2816105ed610bac565b610a42565b5b610632576040517f08c379a000000000000000000000000000000000000000000000000000000000815260040161062990611d25565b60405180910390fd5b61063c8383610bb4565b505050565b61065261064c610bac565b82610c6d565b610691576040517f08c379a000000000000000000000000000000000000000000000000000000000815260040161068890611de5565b60405180910390fd5b61069c838383610d4b565b505050565b6106bc8383836040518060200160405280600081525061093b565b505050565b6000806002600084815260200190815260200160002060009054906101000a900473ffffffffffffffffffffffffffffffffffffffff169050600073ffffffffffffffffffffffffffffffffffffffff168173ffffffffffffffffffffffffffffffffffffffff16141561076a576040517f08c379a000000000000000000000000000000000000000000000000000000000815260040161076190611d65565b60405180910390fd5b80915050919050565b60008073ffffffffffffffffffffffffffffffffffffffff168273ffffffffffffffffffffffffffffffffffffffff1614156107e4576040517f08c379a00000000000000000000000000000000000000000000000000000000081526004016107db90611d45565b60405180910390fd5b600360008373ffffffffffffffffffffffffffffffffffffffff1673ffffffffffffffffffffffffffffffffffffffff168152602001908152602001600020549050919050565b60606001805461083a9061201f565b80601f01602080910402602001604051908101604052809291908181526020018280546108669061201f565b80156108b35780601f10610888576101008083540402835291602001916108b3565b820191906000526020600020905b81548152906001019060200180831161089657829003601f168201915b5050505050905090565b6000600654905090565b6000806108d26108bd565b90506108de8482610fb2565b82600760008381526020019081526020016000209080519060200190610905929190611509565b5060016006546109159190611edf565b6006819055508091505092915050565b610937610930610bac565b838361118c565b5050565b61094c610946610bac565b83610c6d565b61098b576040517f08c379a000000000000000000000000000000000000000000000000000000000815260040161098290611de5565b60405180910390fd5b610997848484846112f9565b50505050565b60606007600083815260200190815260200160002080546109bd9061201f565b80601f01602080910402602001604051908101604052809291908181526020018280546109e99061201f565b8015610a365780601f10610a0b57610100808354040283529160200191610a36565b820191906000526020600020905b815481529060010190602001808311610a1957829003601f168201915b50505050509050919050565b6000600560008473ffffffffffffffffffffffffffffffffffffffff1673ffffffffffffffffffffffffffffffffffffffff16815260200190815260200160002060008373ffffffffffffffffffffffffffffffffffffffff1673ffffffffffffffffffffffffffffffffffffffff16815260200190815260200160002060009054906101000a900460ff16905092915050565b60007f01ffc9a7000000000000000000000000000000000000000000000000000000007bffffffffffffffffffffffffffffffffffffffffffffffffffffffff1916827bffffffffffffffffffffffffffffffffffffffffffffffffffffffff1916149050919050565b60008073ffffffffffffffffffffffffffffffffffffffff166002600084815260200190815260200160002060009054906101000a900473ffffffffffffffffffffffffffffffffffffffff1673ffffffffffffffffffffffffffffffffffffffff1614159050919050565b600033905090565b816004600083815260200190815260200160002060006101000a81548173ffffffffffffffffffffffffffffffffffffffff021916908373ffffffffffffffffffffffffffffffffffffffff160217905550808273ffffffffffffffffffffffffffffffffffffffff16610c27836106c1565b73ffffffffffffffffffffffffffffffffffffffff167f8c5be1e5ebec7d5bd14f71427d1e84f3dd0314c0f7b2291e5b200ac8c7c3b92560405160405180910390a45050565b6000610c7882610b40565b610cb7576040517f08c379a0000000000000000000000000000000000000000000000000000000008152600401610cae90611d05565b60405180910390fd5b6000610cc2836106c1565b90508073ffffffffffffffffffffffffffffffffffffffff168473ffffffffffffffffffffffffffffffffffffffff161480610d3157508373ffffffffffffffffffffffffffffffffffffffff16610d19846104a4565b73ffffffffffffffffffffffffffffffffffffffff16145b80610d425750610d418185610a42565b5b91505092915050565b8273ffffffffffffffffffffffffffffffffffffffff16610d6b826106c1565b73ffffffffffffffffffffffffffffffffffffffff1614610dc1576040517f08c379a0000000000000000000000000000000000000000000000000000000008152600401610db890611c85565b60405180910390fd5b600073ffffffffffffffffffffffffffffffffffffffff168273ffffffffffffffffffffffffffffffffffffffff161415610e31576040517f08c379a0000000000000000000000000000000000000000000000000000000008152600401610e2890611cc5565b60405180910390fd5b610e3c838383611355565b610e47600082610bb4565b6001600360008573ffffffffffffffffffffffffffffffffffffffff1673ffffffffffffffffffffffffffffffffffffffff1681526020019081526020016000206000828254610e979190611f35565b925050819055506001600360008473ffffffffffffffffffffffffffffffffffffffff1673ffffffffffffffffffffffffffffffffffffffff1681526020019081526020016000206000828254610eee9190611edf565b92505081905550816002600083815260200190815260200160002060006101000a81548173ffffffffffffffffffffffffffffffffffffffff021916908373ffffffffffffffffffffffffffffffffffffffff160217905550808273ffffffffffffffffffffffffffffffffffffffff168473ffffffffffffffffffffffffffffffffffffffff167fddf252ad1be2c89b69c2b068fc378daa952ba7f163c4a11628f55a4df523b3ef60405160405180910390a4610fad83838361135a565b505050565b600073ffffffffffffffffffffffffffffffffffffffff168273ffffffffffffffffffffffffffffffffffffffff161415611022576040517f08c379a000000000000000000000000000000000000000000000000000000000815260040161101990611d85565b60405180910390fd5b61102b81610b40565b1561106b576040517f08c379a000000000000000000000000000000000000000000000000000000000815260040161106290611ca5565b60405180910390fd5b61107760008383611355565b6001600360008473ffffffffffffffffffffffffffffffffffffffff1673ffffffffffffffffffffffffffffffffffffffff16815260200190815260200160002060008282546110c79190611edf565b92505081905550816002600083815260200190815260200160002060006101000a81548173ffffffffffffffffffffffffffffffffffffffff021916908373ffffffffffffffffffffffffffffffffffffffff160217905550808273ffffffffffffffffffffffffffffffffffffffff16600073ffffffffffffffffffffffffffffffffffffffff167fddf252ad1be2c89b69c2b068fc378daa952ba7f163c4a11628f55a4df523b3ef60405160405180910390a46111886000838361135a565b5050565b8173ffffffffffffffffffffffffffffffffffffffff168373ffffffffffffffffffffffffffffffffffffffff1614156111fb576040517f08c379a00000000000000000000000000000000000000000000000000000000081526004016111f290611ce5565b60405180910390fd5b80600560008573ffffffffffffffffffffffffffffffffffffffff1673ffffffffffffffffffffffffffffffffffffffff16815260200190815260200160002060008473ffffffffffffffffffffffffffffffffffffffff1673ffffffffffffffffffffffffffffffffffffffff16815260200190815260200160002060006101000a81548160ff0219169083151502179055508173ffffffffffffffffffffffffffffffffffffffff168373ffffffffffffffffffffffffffffffffffffffff167f17307eab39ab6107e8899845ad3d59bd9653f200f220920489ca2b5937696c31836040516112ec9190611c28565b60405180910390a3505050565b611304848484610d4b565b6113108484848461135f565b61134f576040517f08c379a000000000000000000000000000000000000000000000000000000000815260040161134690611c65565b60405180910390fd5b50505050565b505050565b505050565b60006113808473ffffffffffffffffffffffffffffffffffffffff166114f6565b156114e9578373ffffffffffffffffffffffffffffffffffffffff1663150b7a026113a9610bac565b8786866040518563ffffffff1660e01b81526004016113cb9493929190611bdc565b602060405180830381600087803b1580156113e557600080fd5b505af192505050801561141657506040513d601f19601f820116820180604052508101906114139190611909565b60015b611499573d8060008114611446576040519150601f19603f3d011682016040523d82523d6000602084013e61144b565b606091505b50600081511415611491576040517f08c379a000000000000000000000000000000000000000000000000000000000815260040161148890611c65565b60405180910390fd5b805181602001fd5b63150b7a0260e01b7bffffffffffffffffffffffffffffffffffffffffffffffffffffffff1916817bffffffffffffffffffffffffffffffffffffffffffffffffffffffff1916149150506114ee565b600190505b949350505050565b600080823b905060008111915050919050565b8280546115159061201f565b90600052602060002090601f016020900481019282611537576000855561157e565b82601f1061155057805160ff191683800117855561157e565b8280016001018555821561157e579182015b8281111561157d578251825591602001919060010190611562565b5b50905061158b919061158f565b5090565b5b808211156115a8576000816000905550600101611590565b5090565b60006115bf6115ba84611e45565b611e20565b9050828152602081018484840111156115d757600080fd5b6115e2848285611fdd565b509392505050565b60006115fd6115f884611e76565b611e20565b90508281526020810184848401111561161557600080fd5b611620848285611fdd565b509392505050565b600081359050611637816124b1565b92915050565b60008135905061164c816124c8565b92915050565b600081359050611661816124df565b92915050565b600081519050611676816124df565b92915050565b600082601f83011261168d57600080fd5b813561169d8482602086016115ac565b91505092915050565b600082601f8301126116b757600080fd5b81356116c78482602086016115ea565b91505092915050565b6000813590506116df816124f6565b92915050565b6000602082840312156116f757600080fd5b600061170584828501611628565b91505092915050565b6000806040838503121561172157600080fd5b600061172f85828601611628565b925050602061174085828601611628565b9150509250929050565b60008060006060848603121561175f57600080fd5b600061176d86828701611628565b935050602061177e86828701611628565b925050604061178f868287016116d0565b9150509250925092565b600080600080608085870312156117af57600080fd5b60006117bd87828801611628565b94505060206117ce87828801611628565b93505060406117df878288016116d0565b925050606085013567ffffffffffffffff8111156117fc57600080fd5b6118088782880161167c565b91505092959194509250565b6000806040838503121561182757600080fd5b600061183585828601611628565b92505060206118468582860161163d565b9150509250929050565b6000806040838503121561186357600080fd5b600061187185828601611628565b925050602083013567ffffffffffffffff81111561188e57600080fd5b61189a858286016116a6565b9150509250929050565b600080604083850312156118b757600080fd5b60006118c585828601611628565b92505060206118d6858286016116d0565b9150509250929050565b6000602082840312156118f257600080fd5b600061190084828501611652565b91505092915050565b60006020828403121561191b57600080fd5b600061192984828501611667565b91505092915050565b60006020828403121561194457600080fd5b6000611952848285016116d0565b91505092915050565b61196481611f69565b82525050565b61197381611f7b565b82525050565b600061198482611ea7565b61198e8185611ebd565b935061199e818560208601611fec565b6119a78161210f565b840191505092915050565b60006119bd82611eb2565b6119c78185611ece565b93506119d7818560208601611fec565b6119e08161210f565b840191505092915050565b60006119f8603283611ece565b9150611a0382612120565b604082019050919050565b6000611a1b602583611ece565b9150611a268261216f565b604082019050919050565b6000611a3e601c83611ece565b9150611a49826121be565b602082019050919050565b6000611a61602483611ece565b9150611a6c826121e7565b604082019050919050565b6000611a84601983611ece565b9150611a8f82612236565b602082019050919050565b6000611aa7602c83611ece565b9150611ab28261225f565b604082019050919050565b6000611aca603883611ece565b9150611ad5826122ae565b604082019050919050565b6000611aed602a83611ece565b9150611af8826122fd565b604082019050919050565b6000611b10602983611ece565b9150611b1b8261234c565b604082019050919050565b6000611b33602083611ece565b9150611b3e8261239b565b602082019050919050565b6000611b56602c83611ece565b9150611b61826123c4565b604082019050919050565b6000611b79602183611ece565b9150611b8482612413565b604082019050919050565b6000611b9c603183611ece565b9150611ba782612462565b604082019050919050565b611bbb81611fd3565b82525050565b6000602082019050611bd6600083018461195b565b92915050565b6000608082019050611bf1600083018761195b565b611bfe602083018661195b565b611c0b6040830185611bb2565b8181036060830152611c1d8184611979565b905095945050505050565b6000602082019050611c3d600083018461196a565b92915050565b60006020820190508181036000830152611c5d81846119b2565b905092915050565b60006020820190508181036000830152611c7e816119eb565b9050919050565b60006020820190508181036000830152611c9e81611a0e565b9050919050565b60006020820190508181036000830152611cbe81611a31565b9050919050565b60006020820190508181036000830152611cde81611a54565b9050919050565b60006020820190508181036000830152611cfe81611a77565b9050919050565b60006020820190508181036000830152611d1e81611a9a565b9050919050565b60006020820190508181036000830152611d3e81611abd565b9050919050565b60006020820190508181036000830152611d5e81611ae0565b9050919050565b60006020820190508181036000830152611d7e81611b03565b9050919050565b60006020820190508181036000830152611d9e81611b26565b9050919050565b60006020820190508181036000830152611dbe81611b49565b9050919050565b60006020820190508181036000830152611dde81611b6c565b9050919050565b60006020820190508181036000830152611dfe81611b8f565b9050919050565b6000602082019050611e1a6000830184611bb2565b92915050565b6000611e2a611e3b565b9050611e368282612051565b919050565b6000604051905090565b600067ffffffffffffffff821115611e6057611e5f6120e0565b5b611e698261210f565b9050602081019050919050565b600067ffffffffffffffff821115611e9157611e906120e0565b5b611e9a8261210f565b9050602081019050919050565b600081519050919050565b600081519050919050565b600082825260208201905092915050565b600082825260208201905092915050565b6000611eea82611fd3565b9150611ef583611fd3565b9250827fffffffffffffffffffffffffffffffffffffffffffffffffffffffffffffffff03821115611f2a57611f29612082565b5b828201905092915050565b6000611f4082611fd3565b9150611f4b83611fd3565b925082821015611f5e57611f5d612082565b5b828203905092915050565b6000611f7482611fb3565b9050919050565b60008115159050919050565b60007fffffffff0000000000000000000000000000000000000000000000000000000082169050919050565b600073ffffffffffffffffffffffffffffffffffffffff82169050919050565b6000819050919050565b82818337600083830152505050565b60005b8381101561200a578082015181840152602081019050611fef565b83811115612019576000848401525b50505050565b6000600282049050600182168061203757607f821691505b6020821081141561204b5761204a6120b1565b5b50919050565b61205a8261210f565b810181811067ffffffffffffffff82111715612079576120786120e0565b5b80604052505050565b7f4e487b7100000000000000000000000000000000000000000000000000000000600052601160045260246000fd5b7f4e487b7100000000000000000000000000000000000000000000000000000000600052602260045260246000fd5b7f4e487b7100000000000000000000000000000000000000000000000000000000600052604160045260246000fd5b6000601f19601f8301169050919050565b7f4552433732313a207472616e7366657220746f206e6f6e20455243373231526560008201527f63656976657220696d706c656d656e7465720000000000000000000000000000602082015250565b7f4552433732313a207472616e736665722066726f6d20696e636f72726563742060008201527f6f776e6572000000000000000000000000000000000000000000000000000000602082015250565b7f4552433732313a20746f6b656e20616c7265616479206d696e74656400000000600082015250565b7f4552433732313a207472616e7366657220746f20746865207a65726f2061646460008201527f7265737300000000000000000000000000000000000000000000000000000000602082015250565b7f4552433732313a20617070726f766520746f2063616c6c657200000000000000600082015250565b7f4552433732313a206f70657261746f7220717565727920666f72206e6f6e657860008201527f697374656e7420746f6b656e0000000000000000000000000000000000000000602082015250565b7f4552433732313a20617070726f76652063616c6c6572206973206e6f74206f7760008201527f6e6572206e6f7220617070726f76656420666f7220616c6c0000000000000000602082015250565b7f4552433732313a2062616c616e636520717565727920666f7220746865207a6560008201527f726f206164647265737300000000000000000000000000000000000000000000602082015250565b7f4552433732313a206f776e657220717565727920666f72206e6f6e657869737460008201527f656e7420746f6b656e0000000000000000000000000000000000000000000000602082015250565b7f4552433732313a206d696e7420746f20746865207a65726f2061646472657373600082015250565b7f4552433732313a20617070726f76656420717565727920666f72206e6f6e657860008201527f697374656e7420746f6b656e0000000000000000000000000000000000000000602082015250565b7f4552433732313a20617070726f76616c20746f2063757272656e74206f776e6560008201527f7200000000000000000000000000000000000000000000000000000000000000602082015250565b7f4552433732313a207472616e736665722063616c6c6572206973206e6f74206f60008201527f776e6572206e6f7220617070726f766564000000000000000000000000000000602082015250565b6124ba81611f69565b81146124c557600080fd5b50565b6124d181611f7b565b81146124dc57600080fd5b50565b6124e881611f87565b81146124f357600080fd5b50565b6124ff81611fd3565b811461250a57600080fd5b5056fea264697066735822122060b4cd8f36f91e2d764686cbbaa039957430914ec1625cfcaacb82c39c1bf14564736f6c63430008040033",
  "linkReferences": {},
  "deployedLinkReferences": {}
}